:1005C6002052656420436F6E74726F6C2000202089
:0F05D60049522D434F44453A202D2D48202000F7
:10001600C2A3D2A4D2A500000000E580339202C29A
:03002600A5A2028E
:0100290022B4
:10065D0012001640FBC2A3C2A4C2A500008F8000E9
:0C066D00000000D2A500000000C2A52281
:1006940012001640FBD2A3C2A4C2A58F80000000A2
:0A06A40000D2A500000000C2A5224C
:100485007F0F7E001206AE7F3812065D7F057E0067
:100495001206AE7F3812065D7F057E001206AE7F1E
:1004A5003812065D7F057E001206AE7F0C12065DD2
:1004B5007F057E001206AE7F0612065D1F7E0012C6
:0E04C50006AE7F0112065D7F057E000206AEC8
:0707B300EF4480FF02065D28
:0C057A0004210000000004250000000027
:0E076C00758901758CFF758A33D28CD2A92253
:10074C00E4F5C9F5C8F5CCF5CDF5CAF5CBD2AD229B
:0907A200D288D28AD2A8D2AA2280
:1005A200D2B31207A212076C12074C751703751605
:1005B20003751AFF7515037F0A7E001206AEE4F575
:0405C20015D2AF227D
:100416001205A2E51A1202BF046901047D050473E0
:100426000604500A045A0D04460E047812046E1788
:10043600045F19044B1A04641B04551E00000419BA
:1004460012071480CE12072780C912077A80C412B9
:10045600078480BF1206E280BA1206FB80B5120737
:100466008E80B012079880AB75150180A6751505AC
:0F04760080A1751503809C1207C575150380942E
:10073A00AD071FED600BE4FEEEC3940D50F20E8080
:01074A00F7B7
:01074B00228B
:1006AE00EF1FAA0670011E4A600FE4FDEDC394FA17
:0906BE0050EE000000000D80F375
:0106C7002210
:0F075C00E4FC7F0412073AB2B60CBC64F5D2B6C7
:01076B00226B
:040006007515042246
:04000E007515022240
:0407C100E4F5152224
:10052000AFCDEFFEADCC7C00E42DFFEC3EFEE4F55C
:10053000CDF5CCAD07AC061201D97B297A5C79EFF9
:0F054000783F12002EE4FBFA79C8784212013797
:01054F002289
:1006C800D2A00000000000000000000000000000B0
:0A06D80000000000000000C2A02294
:10055000E4FFFE1206C8F5CDF5CC20A10F0FBF00B9
:10056000010ED3EF94D0EE940740EFE4D2CA20A15D
:0A057000FDC2CA7F017E000206AE44
:10058600011000011700011F00011600C180C18182
:0B05960002110000021300000115001C
:1005E500300118E510D395175004D2948002C294B7
:0E05F500E510C3940A4006E4F51022C29422D9
:10060300300118E510D395175004D2958002C29596
:0E061300E510C3940A4006E4F51022C29522B9
:10062100300018E51FD395165004D2968002C29669
:0E063100E51FC3940A4006E4F51F22C296227C
:10063F00300018E51FD395165004D2978002C29749
:0E064F00E51FC3940A4006E4F51F22C297225D
:03002B0002067951
:10067900C0E0C2CF0514E51470020513640A4513DE
:0B0689007006B290F513F514D0E032BB
:03000B000204D319
:1004D300C0E0C0F0C0D075D008758CFE758A33C3F8
:1004E300E5129515E51194005004D2A78002C2A726
:1004F3000512E51270020511AE11FF7C007D281272
:10050300025C8C118D120510051F1205E5120603FE
:0D05130012062112063FD0D0D0F0D0E03209
:030003000207BA37
:0707BA00C2A8D203D2A8324D
:030013000202E501
:0D02E500C0E0C0F0C083C082C0D075D00062
:1002F200752B00C2AA7F0F12073A30B304D2AA802C
:100302007C20B3077F0112073A80F6752900752A0F
:100312000030B3077F0112073A80F620B3077F014E
:1003220012073A80F630B3127F0112073A052BE525
:100332002BC3941E40EFD2AA804374182529F8C01B
:1003420000E6FFC313D000F6E52BC39408400974FE
:10035200182529F8E64480F6752B00052AE52AC3FC
:10036200940840AD0529E529C3940440A1E51BF496
:0D037200651A6004D2AA800512075CD2AAA9
:0B037F00D0D0D082D083D0F0D0E0328C
:0807AB00E4F580F517F51622B4
:10071400E517D395164005851716800385161775BA
:0307240080A5228B
:10072700E517D395164005851716800385161775A7
:03073700805A22C3
:0A077A007580A5751605751702229B
:0A0784007580A57517057516022291
:0A078E007517057516057580AA227F
:0A07980075170575160575805522CA
:0407C500E4F58022B5
:1006E2000517E517D3940A400375170A0516E51690
:0906F200D3940A400375160A2294
:1006FB001517E517C3940250037517021516E51667
:09070B00C394025003751602228A
:10002E00EC4D6011E8497017ED33EC3304600DE4CC
:10003E00FCFFFEFD22E933E8330470F8020247129A
:10004E00021258046009E4CC24815006285009029B
:10005E00025128400302024EC0E0EB4A7044B980C0
:10006E0006D0E0FB02023DEF4E701CBD8008EBFF98
:10007E00EAFEE9FD80EBE98DF0A4FEE5F002011742
:10008E00E9CDF9EAFEEBFFEF89F0A4FCE5F0CE89AD
:10009E00F0A42EFFE435F0CD89F0A42DFEE435F06A
:1000AE008067EF4E7005BD80D780C3EF8BF0A4AC98
:1000BE00F0EE8BF0A42CFCE435F0F8EF8AF0A42CD3
:1000CE00E5F038FCE433CB8DF0A42CFCE5F03BF8E6
:1000DE00EE8AF0A42CFCE5F038F8E433CF89F0A4D6
:1000EE002CFCE5F038CF3400CE89F0A42FFFE5F0DC
:1000FE003EFEE433C98DF0A42EFEE5F039CD8AF034
:10010E00A42FFFE5F03EFEE43DFD33D0E0FB5007AB
:10011E000BBB000F020251EC2CFCEF33FFEE33FE53
:06012E00ED33FD02022981
:10013400020251EC5D046005E859047003020247B1
:10014400120212580460F6EC4860F2EC7004FDFEF2
:10015400FF22C860DB2481C85009C398600250069E
:1001640002024E9850CAF582E9294B4A7005AB82C7
:1001740002023D75F0007C1A7880C3EF9BEE9AED85
:1001840099400DC3EF9BFFEE9AFEED99FDE842F016
:10019400DC23ACF0D0E0FFD0E0FED0E0FDAB822069
:1001A400E7101BEB60BAEC2CFCEF33FFEE33FEEDF3
:1001B40033FD020229E803F830E705C0F075F000CA
:1001C400EF2FFFEE33FEED33FD40B830E7C280AAD7
:1001D40075F020800E75F010800575F0087D007EA6
:1001E400007F003392D530D5031202B1EC334010B6
:1001F400EF33FFEE33FEED33FDEC33FCD5F0ED22AF
:0E020400E5F0247EA2D513CC92E7CDCEFF22EA
:10021200E9D2E7C933E833F892D5EDD2E7CD33EC32
:0702220033FC5002B2D522AB
:10022900EC30E7100FBF000C0EBE00080DBD000436
:100239000BEB6014A2D5EB13FCED92E7FD2274FFE2
:10024900FCFDFEFF22E480F8A2D574FF13FC7D803B
:03025900E480EF4F
:0300000002038A6E
:0C038A00787FE4F6D8FD75812B0203D1CA
:10025C00BC000BBE0029EF8DF084FFADF022E4CC86
:10026C00F875F008EF2FFFEE33FEEC33FCEE9DEC4F
:10027C00984005FCEE9DFE0FD5F0E9E4CEFD22ED95
:10028C00F8F5F0EE8420D21CFEADF075F008EF2FDF
:10029C00FFED33FD4007985006D5F0F222C398FDD0
:0502AC000FD5F0EA226D
:0E02B100C3E49FFFE49EFEE49DFDE49CFC225E
:1002BF00D083D082F8E4937012740193700DA3A3CE
:1002CF0093F8740193F5828883E4737402936860E2
:0602DF00EFA3A3A380DFE2
:10039600020416E493A3F8E493A34003F68001F263
:1003A60008DFF48029E493A3F85407240CC8C33368
:1003B600C4540F4420C8834004F456800146F6DF37
:1003C600E4800B010204081020408090057AE47E48
:1003D600019360BCA3FF543F30E509541FFEE4932C
:1003E600A360010ECF54C025E060A840B8E493A3F3
:1003F600FAE493A3F8E493A3C8C582C8CAC583CA1E
:10040600F0A3C8C582C8CAC583CADFE9DEE780BED5
:0105A1000059
:00000001FF
